:100000000C946D010C9495010C9495010C94950140
:100010000C9495010C9495010C9495010C94950108
:100020000C9495010C9495010C9495010C94510637
:100030000C9495010C9495010C9495010C949501E8
:100040000C94C60A0C9495010C9432080C949501FA
:100050000C94D8070C9495010C9495010C9495017F
:100060000C94EA040C949501AED580A83FD30040CF
:100070008D142002A1C8DA12817FD9F1DB40A4A639
:10008000AF00030C0F30333C3FC0C3CCCFF0F3FCC8
:10009000FF000005072060000000000000005F0076
:1000A000000007000700147F147F14242A7F2A12FF
:1000B00023130864623649562050000807030000E5
:1000C0001C2241000041221C002A1C7F1C2A080817
:1000D0003E0808008070300008080808080000602A
:1000E000600020100804023E5149453E00427F4016
:1000F0000072494949462141494D331814127F1075
:1001000027454545393C4A494931412111090736BE
:1001100049494936464949291E000014000000405B
:100120003400000008142241141414141400412255
:10013000140802015909063E415D594E7C12111204
:100140007C7F494949363E414141227F4141413E00
:100150007F494949417F090909013E414151737F66
:100160000808087F00417F41002040413F017F088F
:100170001422417F404040407F021C027F7F0408E0
:10018000107F3E4141413E7F090909063E41512110
:100190005E7F09192946264949493203017F010337
:1001A0003F4040403F1F2040201F3F4038403F63BA
:1001B0001408146303047804036159494D43007F14
:1001C0004141410204081020004141417F040201E5
:1001D0000204404040404000030708002054547887
:1001E000407F284444383844444428384444287FD5
:1001F000385454541800087E090218A4A49C787F2F
:100200000804047800447D40002040403D007F10F9
:1002100028440000417F40007C047804787C080476
:1002200004783844444438FC18242418182424182A
:10023000FC7C08040408485454542404043F442417
:100240003C4040207C1C2040201C3C4030403C4432
:10025000281028444C9090907C4464544C440008EE
:10026000364100000077000000413608000201021C
:1002700004023C2623263C68001980400000000050
:1002800000230026002900000000080002010000F1
:10029000030407000000000000000000000000252B
:1002A0000028002B0000000000240027002A000482
:1002B000040404040404040202020202020303030D
:1002C0000303030102040810204080010204081007
:1002D0002001020408102000960D11241FBECFEF4C
:1002E000D8E0DEBFCDBF11E0A0E0B1E0EEE6FFE177
:1002F00002C005900D92A634B107D9F727E0A6E415
:10030000B1E001C01D92A330B207E1F711E0CDE6E4
:10031000D1E004C02197FE010E94A10FCC36D10785
:10032000C9F70E94100B0C94B50F0C9400000895AF
:100330000895CF92DF92EF92FF920F931F93CF9386
:10034000DF936C017A018B01C0E0D0E0CE15DF05B0
:1003500081F0D8016D918D01D601ED91FC91019054
:10036000F081E02DC6010995892B11F02196EECF81
:100370007E01C701DF91CF911F910F91FF90EF9008
:10038000DF90CF900895CF93DF93EC019C818E8115
:10039000981768F48F856827E881F9810084F185D2
:1003A000E02D42E0CE0109958C818F5F8C83DF9137
:1003B000CF91089585ED8093BC008091BC0084FDB1
:1003C000FCCF1092B605089540918801262F30E0A9
:1003D000240F311D21323105DCF42091B605243083
:1003E000C9F4FC0180E090E0861758F43091880150
:1003F0002191DC01A859BE4FA30FB11D2C9301968A
:10040000F3CF80918801680F6093880180E00895A0
:1004100081E0089582E008950895E091B00180910F
:10042000AF01E81730F4F0E0E85BFE4F808190E028
:1004300008958FEF9FEF08959091B0018091AF01E3
:10044000981750F4E92FF0E0E85BFE4F208130E090
:100450009F5F9093B00102C02FEF3FEFC901089555
:100460008091AF0190E02091B001821B9109089525
:10047000CF92DF92EF92FF920F931F93CF93DF9370
:100480007C01CB018A012091B705222389F0EB0181
:100490006B01C40ED51ECC15DD0569F06991D7013D
:1004A000ED91FC910190F081E02DC7010995F3CF0A
:1004B000642F0E94E401C801DF91CF911F910F9139
:1004C000FF90EF90DF90CF900895CF93DF931F922E
:1004D000CDB7DEB769832091B7052223D1F02091F3
:1004E000DA05203240F021E030E0FC013383228342
:1004F00080E090E015C08091B805E82FF0E0E75467
:10050000FA4F998190838F5F8093B8058093DA05C5
:1005100005C061E0CE0101960E94E40181E090E017
:100520000F90DF91CF910895089580E090E00895B5
:100530000E94A70F0F931F93CF93DF93EC01062F19
:10054000142F8A89813120F4882329F0411103C0B6
:100550000E94160A1A8A8A89811113C0898991E03A
:100560009093B7058093D9051092B8051092DA05DB
:10057000112311F060E401C060E08BED96E00E9471
:100580006502602F8BED96E00E946502123021F427
:100590008A898F5F8A8B03C00E94160A1A8ADF91AC
:1005A000CF911F910F910895DC01ED91FC91008492
:1005B000F185E02D40E009940F931F93CF938C01B8
:1005C000FC0164838085C62FC80F6C2F6F70C80133
:1005D0000E94D4026C2F62956F706061C801CF9148
:1005E0001F910F910C94D402FC018781869586950A
:1005F0008695681740F465839385690F6770606B13
:10060000CF010C94D40208951F93CF93DF93EC0194
:10061000142F8E81681718F4CE010E94DC02612F1E
:10062000CE01DF91CF911F910C94F402CF92DF9213
:10063000EF92FF920F931F93CF93DF93EC01F62E6F
:10064000C42ED22E8F81869586958695081710F038
:100650000FEF080F1D2D011780F0412F6F2DCE01D8
:100660000E940403EF2CCE1430F06F85CE010E945F
:10067000C301E394F8CF1F5FEECF4D2D6F2DCE0158
:10068000DF91CF911F910F91FF90EF90DF90CF906E
:100690000C9404032F923F924F925F926F927F923D
:1006A0008F929F92AF92BF92CF92DF92EF92FF9282
:1006B0000F931F93CF93DF93CDB7DEB729970FB674
:1006C000F894DEBF0FBECDBFDC011D962D913C918D
:1006D0001E972115310509F462C199878887F901B0
:1006E0003296449031967491E72EF12CB7E0EB0EE0
:1006F000F11C93E0F594E7949A95E1F7EA8231963C
:10070000A4913196E4916A1758F0462F50E08E2F4D
:1007100090E0FC01EA0FF11D4E175F070CF476C064
:100720006D3061F4E885F9858681882309F434C148
:1007300060E0888599850E94DC022EC16A3009F04C
:100740002EC1A885B98516968C911697882321F01D
:1007500060E0CD010E94DC02E885F98500890E9DEC
:10076000E02C1124278126952695269565816E0D0E
:100770008E2D821B860F9485992309F409C11816C2
:100780000CF006C1A885B9851B969C911B97890F13
:1007900087701B968C931B972E1915962C93159783
:1007A0001D96ED91FC911E97309769F03396E49178
:1007B000F0E0379683E0F595E7958A95E1F70E9F8F
:1007C000E02D112401C0E0E00FEF020F0E0FE885CD
:1007D000F985468141506481CF010E941603A885A6
:1007E000B9851C968C911C97813009F0D5C01B9659
:1007F0006C911B97660F660F660F6F731A966C935A
:100800001A976064CD010E94D402C6C0A9014A5F54
:100810005F4F6A1BA885B9851996FC911997509668
:10082000EC91FE9FE02D1124EF83F901A491319604
:10083000249130E03A2B2230310570F44E9CC001F7
:100840004F9C900D1124689F8001699F100D112409
:10085000040F151F312C22C0777021F028E0322EB2
:10086000371A01C0312CFA0120E0A0E0B0E02617D1
:1008700031F03491A30FB11D2F5F3196F8CFFA01FB
:10088000E20FF11D4490EA9E8001EB9E100DFA9E4E
:10089000100D1124080F191F040F151FA885B98505
:1008A0001496BC91BB83E885F985F581FC83842D82
:1008B00090E09E838D83812C912CC12CD12CC982F8
:1008C0009A81C91608F063C0212C3601BFEF6B1A5C
:1008D0007B0AE885F9858089281608F050C0F981DF
:1008E000F11102C0222051F0A885B98515964C91CE
:1008F00015974F5F6B81CD010E940403A12CB12C91
:10090000A41410F0B12C2FC0F401EA0DFB1DE00F70
:10091000F11F5490332061F0E614F70449F4E52DFB
:10092000F0E0032C02C0F595E7950A94E2F75E2EFD
:10093000E885F9858089823069F4E52D2110E295FA
:10094000EF70F0E0EF57FF4F5490652D8885998543
:100950000E94C301652D888599850E94C301FFEF20
:10096000AF1ABF0ACDCF8F81B81639F060E0888505
:1009700099850E94C301B394F6CF2394AACF9FEF29
:10098000C91AD90AAD81BE818A0E9B1E98CF6C818F
:10099000888599850E94F40281E090E002C080E0A1
:1009A00090E029960FB6F894DEBF0FBECDBFDF9161
:1009B000CF911F910F91FF90EF90DF90CF90BF905C
:1009C000AF909F908F907F906F905F904F903F90EF
:1009D0002F9008951F920F920FB60F9211242F930C
:1009E0003F934F935F936F937F938F939F93AF93B7
:1009F000BF93EF93FF938091B900887F803609F40D
:100A00009CC068F5883209F45BC090F4803109F429
:100A100054C038F4882309F4F6C0883009F44DC076
:100A2000F6C0883109F44CC0803209F45DC0EFC0D3
:100A3000803409F468C048F4803309F455C0883321
:100A400009F0E5C08093B405D8C0803509F44FC0E3
:100A5000883509F45DC0883409F0D9C0D6C088391A
:100A600009F4C7C0A8F4883709F467C038F4883699
:100A700009F463C0803709F460C0C9C0883809F43C
:100A8000B8C0803909F45FC0803809F0C0C05BC0CD
:100A9000803B09F486C038F4803A09F466C0883A8D
:100AA00009F47FC0B4C0803C09F4A7C0883C09F4B5
:100AB000A4C0883B09F48AC0AAC08091910510C0E7
:100AC0009091B3058091B205981770F5E091B30548
:100AD00081E08E0F8093B305F0E0EE56FA4F8081EF
:100AE0008093BB0085EC86C08093B4058EC0E091F6
:100AF000B30581E08E0F8093B3058091BB00F0E0D9
:100B0000EE56FA4F80839091B3058091B2056EC086
:100B1000E091B30581E08E0F8093B3058091BB0017
:100B2000F0E0EE56FA4F80838091B50581116DC0DB
:100B300081E08093900584EA61C083E08093B605EC
:100B40001092AA01CFCF8091AA01803208F051C043
:100B5000E091AA0181E08E0F8093AA018091BB00F1
:100B6000F0E0E657FE4F8083BDCF85EC8093BC005C
:100B70001092B6058091AA01803230F4E091AA016A
:100B8000F0E0E657FE4F10826091AA0170E0E0911C
:100B9000AB01F091AC018AE891E009951092AA01AD
:100BA00036C084E08093B6051092890110928801C6
:100BB000E091AD01F091AE0109958091880181111C
:100BC00005C081E08093880110926801E09189015D
:100BD00081E08E0F80938901F0E0E859FE4F80811B
:100BE0008093BB009091890180918801981708F447
:100BF00079CF85E88093BC000AC085EC8093BC0067
:100C00001092B60504C01092B4050E94DA01FF915B
:100C1000EF91BF91AF919F918F917F916F915F9174
:100C20004F913F912F910F900FBE0F901F901895ED
:100C3000EBEDF5E020E030E0822F48E050E0682F57
:100C400070E0660F771F87FD02C080E001C087E07B
:100C500086274150510999F781932F5F3F4F211506
:100C600081E0380749F70895FC0186819781860F56
:100C7000971F9783868326813781828193812817E6
:100C8000390740F02281338186819781821B930B43
:100C90009783868380859185861B970B91878087B4
:100CA00008951F920F920FB60F9211243F924F9208
:100CB0005F926F927F928F929F92AF92BF92CF92EC
:100CC000DF92EF92FF920F931F932F933F934F93D7
:100CD0005F936F937F938F939F93AF93BF93EF93A4
:100CE000FF93CF93DF93CDB7DEB7C25BD109DEBFF1
:100CF000CDBF10928F05E0902B03F0902C0383EB77
:100D0000E816F10430F496E0E916F10408F4FBC0AB
:100D100003C032EBE32EF12C809125039091260342
:100D20004091290350912A0320912B0330912C03E9
:100D3000841B950B2817390728F400912B03109179
:100D40002C030AC0009125031091260380912903EA
:100D500090912A03081B190BC0902303D090240301
:100D60006091290370912A036C0D7D1DA801CE01AD
:100D700001960E94AC0F0E151F0560F4A701401BE1
:100D8000510BB60181E090E08C0F9D1F800F911FE9
:100D90000E94AC0F00E010E096E4492E25E0322ED0
:100DA000C8010696E816F90608F4ADC0E1E0F0E0E7
:100DB000EC0FFD1FE00FF11F8081853519F08A3A95
:100DC00009F098C0CC24C394D12CCC0EDD1EC00EEB
:100DD000D11ED60114965C90852C912C5401B6E05E
:100DE000AB0EB11CC701801B910B8A159B0508F443
:100DF0008AC03401E5E06E0E711C8091DC058730FD
:100E000011F00E941806D601E0E08D91E827F0E08D
:100E1000E552FA4FE081CD018C199D0986159705A1
:100E2000A4F381E090E08C0F9D1F680E791ED30122
:100E3000A00FB11F8C918E135DC020918F05422FA2
:100E400050E0449EC001459E900D11248F549E4F4A
:100E5000FC01E657FE4F50823297D60112963C9124
:100E60001297308313967C90139731967082119667
:100E70003C9111973297308331976C916083F801E0
:100E8000359681E090E08C0F9D1FE80FF91F96E4E6
:100E9000299FB001112480E090E0881599054CF459
:100EA000D190DC01A60FB71FA45CBC4FDC92019669
:100EB000F4CF311114C0449EF001459EF00D112471
:100EC000E45CFC4F80819181A281B381379CF00169
:100ED0001124E959FA4F80839183A283B3832F5F52
:100EE00020938F05B50183E293E00E9434060A0D3A
:100EF0001B1D56CF0F5F1F4F61E070E083E293E050
:100F00000E9434064DCF00914601109147010233F3
:100F1000110549F40E949F0961E0892B09F060E006
:100F20008DE00E94720AC801019690934701809358
:100F300046010436110599F440E060E070E084E079
:100F40000E949B080E949F0961E0892B09F060E0E4
:100F50008DE00E94720A1092470110924601CE5411
:100F6000DF4F0FB6F894DEBF0FBECDBFDF91CF913C
:100F7000FF91EF91BF91AF919F918F917F916F9171
:100F80005F914F913F912F911F910F91FF90EF90A3
:100F9000DF90CF90BF90AF909F908F907F906F9099
:100FA0005F904F903F900F900FBE0F901F9018953D
:100FB0001F920F920FB60F9211242F933F934F93CE
:100FC0005F936F937F938F939F93AF93BF93CF93D1
:100FD000EF93FF938091350390913603892B99F01D
:100FE0008091330390913403E0912D03F0912E030F
:100FF000E80FF91FC08161E070E08DE293E00E948C
:101000003406C093C600FF91EF91CF91BF91AF918D
:101010009F918F917F916F915F914F913F912F9110
:101020000F900FBE0F901F901895FC018481958141
:10103000860F971F958384832481358182819381D4
:101040002817390740F02281338184819581821BE2
:10105000930B9583848380859185680F791F7187B1
:10106000608708951F920F920FB60F9211242F934D
:101070003F934F935F936F937F938F939F93AF9320
:10108000BF93EF93FF932091250330912603809126
:101090002B0390912C032817390799F02091C60053
:1010A0008091270390912803E0912303F09124037A
:1010B000E80FF91F208361E070E083E293E00E9473
:1010C0001508FF91EF91BF91AF919F918F917F9103
:1010D0006F915F914F913F912F910F900FBE0F90A5
:1010E0001F901895833081F028F4813099F0823078
:1010F000A1F008958730A9F08830B9F08430D1F498
:10110000809180008F7D03C0809180008F778093D5
:101110008000089584B58F7702C084B58F7D84BD2B
:1011200008958091B0008F7703C08091B0008F7DCB
:101130008093B0000895AF92BF92CF92DF92EF926A
:10114000FF920F931F93CF93DF93CDB7DEB76097D6
:101150000FB6F894DEBF0FBECDBFC42ED12C7601E2
:1011600096E0E90EF11C4C3018F08FEF9FEF9CC019
:101170009AEA99838A838FEF8B838C834D83DE0178
:101180001696FB01CF01861B970B8C159D051CF451
:1011900081918D93F7CF85E0C80ED11C8091DC053D
:1011A000873011F00E941806CE0101965C01DC0127
:1011B000E0E08D91E827F0E0E552FA4FE081CD01C3
:1011C0008A199B098C159D05A4F3D501AC0DBD1D95
:1011D000EC93F89480912F03909130032091350384
:1011E00030913603821B930B8E159F0508F4BDCFFB
:1011F00080912F039091300320913103309132037D
:10120000821B930B8E159F0558F400912F031091AC
:1012100030038091310390913203081B190B01C0F8
:101220008701809131039091320320912D033091F9
:101230002E03A801B501820F931F0E94AC0FB801C5
:101240008DE293E00E9415080E151F05B8F4E01A10
:10125000F10A809131039091320320912D03309156
:101260002E03B501600F711FA701820F931F0E940B
:10127000AC0FB7018DE293E00E9415088091330313
:1012800090913403E0912D03F0912E03E80FF91FA4
:10129000108161E070E08DE293E00E9434061093CB
:1012A000C600789480E090E060960FB6F894DEBFB8
:1012B0000FBECDBFDF91CF911F910F91FF90EF90A7
:1012C000DF90CF90BF90AF9008950F93CF93DF93AF
:1012D000C7EED6E01B861A8660E4CE010E94D402D7
:1012E0000F8106950695069501504E81415020E0EC
:1012F00060E0CE010E941603DF91CF910F91089517
:1013000090E0FC01ED53FD4F2491FC01E155FD4FB0
:101310008491882399F090E0880F991FFC01EB5588
:10132000FD4FA591B491FC01E556FD4F8591949137
:101330008FB7F894EC91E22BEC938FBF0895CF9385
:10134000DF93E4E9F2E08491E0EDF2E0D491ECEB9C
:10135000F2E0C491CC2391F081110E947208EC2F2D
:10136000F0E0EE0FFF1FE358FD4FA591B491EC9113
:10137000ED2381E090E021F480E002C080E090E085
:10138000DF91CF910895009769F0FC010190002052
:10139000E9F73197AF01481B590BBC0187EE96E086
:1013A0000C94990180E090E008958F929F92AF9203
:1013B000BF920F931F93CF93DF93CDB7DEB7A19763
:1013C0000FB6F894DEBF0FBECDBF19A2423008F4AD
:1013D0004AE08E010F5D1F4F842E912CA12CB12C61
:1013E000A50194010E947F0FE62FB901CA010150A7
:1013F0001109EA3014F4E05D01C0E95CD801EC9316
:10140000232B242B252B61F7C8010E94C309A19629
:101410000FB6F894DEBF0FBECDBFDF91CF911F9105
:101420000F91BF90AF909F908F9008953091DA0503
:10143000313208F04BC08091B6058111FCCF9091FC
:10144000D90522E02093B60521E02093B5052FEFC2
:101450002093B4051092B3053093B205E9EBF5E0A3
:10146000A2E9B5E020E0321721F041914D932F5FC2
:10147000FACF1092910520919105990F922B90939C
:10148000910590919005913061F4109290059091A2
:1014900091059093BB009091BC0093FDF8CF95EC23
:1014A00001C095EE9093BC009091B6059230E1F3A7
:1014B0009091B4059F3F79F08091B405803241F05E
:1014C0008091B405803331F084E005C081E003C031
:1014D00082E001C083E01092B8051092DA05109204
:1014E000B70508951F93CF93DF93282F30E0F901BC
:1014F000E957FD4F8491F901ED53FD4FD491F90166
:10150000E155FD4FC491CC23C1F0162F81110E94EB
:101510007208EC2FF0E0EE0FFF1FE556FD4FA5918E
:10152000B4919FB7F894111104C08C91D095D82331
:1015300002C0EC91DE2BDC939FBFDF91CF911F9116
:1015400008953FB7F8948091FF0690910007A0910D
:101550000107B091020726B5A89B05C02F3F19F0DF
:101560000196A11DB11D3FBFBA2FA92F982F882723
:10157000820F911DA11DB11DBC01CD0142E0660F7E
:10158000771F881F991F4A95D1F708951F920F92D0
:101590000FB60F9211242F933F938F939F93AF9386
:1015A000BF938091FB069091FC06A091FD06B0913F
:1015B000FE063091FA0623E0230F2D3720F4019622
:1015C000A11DB11D05C026E8230F0296A11DB11D66
:1015D0002093FA068093FB069093FC06A093FD06E9
:1015E000B093FE068091FF0690910007A09101073D
:1015F000B09102070196A11DB11D8093FF06909343
:101600000007A0930107B0930207BF91AF919F918C
:101610008F913F912F910F900FBE0F901F901895B3
:10162000CF93DF9300D01F92CDB7DEB7789484B507
:10163000826084BD84B5816084BD85B5826085BDCE
:1016400085B5816085BD80916E00816080936E005C
:10165000109281008091810082608093810080914E
:1016600081008160809381008091800081608093FF
:1016700080008091B10084608093B1008091B000BF
:1016800081608093B00080917A00846080937A00BA
:1016900080917A00826080937A0080917A008160E4
:1016A00080937A0080917A00806880937A0010920B
:1016B000C1008DE00E9480098CE00E94800961E0F9
:1016C0008CE00E94720A8FEB91E090932403809348
:1016D000230382EB90E090932603809325031092DE
:1016E0002A031092290310922803109227031092C4
:1016F0002C0310922B0321E732E030932E0320932A
:101700002D039093300380932F0310923403109293
:101710003303109232031092310310923603109269
:1017200035031092B0011092AF011092B8051092DB
:10173000DA051092B60581E08093B5051092900508
:1017400061E082E10E94720A61E083E10E94720A14
:101750008091B9008E7F8093B9008091B9008D7F10
:101760008093B90088E48093B80085E48093BC003E
:1017700087E991E09093AE018093AD0188E991E013
:101780009093AC018093AB018CE08093B8001092F1
:10179000F9068CE38093F8061092EB061092EC06A3
:1017A000E7E7F2E085919491E82EE9E7F2E0F49022
:1017B000EAE7F2E0E491E093ED06EBE7F2E0E49192
:1017C000E093EE06ECE7F2E0E491E093EF068C01A3
:1017D000802F8E198F1548F4F801649187EE96E0FA
:1017E0000E94D4020F5F1F4FF3CF0E946509E1E909
:1017F000F0E0F093F506E093F4068491E2E9F0E07E
:10180000E491F0E0F82B319709F08CC11092F006CA
:101810000E946509F8941092800010928100109245
:101820008500109284008FEC97E09093890080935C
:101830008800809181008860809381008091810080
:1018400082608093810080916F00826080936F003E
:1018500080E88FBF83E090E09093C5008093C40040
:101860008091C20086608093C2008091C100886D23
:101870008093C10078940E9418060E94A10A4B012F
:101880005C0124E6C22ED12CE12CF12C0E94A10A8D
:10189000DC01CB0188199909AA09BB09883E93404C
:1018A000A105B10598F3F1E0CF1AD108E108F108DC
:1018B00028EE820E23E0921EA11CB11CC114D1049B
:1018C000E104F10419F78FEF89838A838B8343E066
:1018D000BE016F5F7F4F82E00E949B08892B51F40D
:1018E00082E090E09093B2018093B1011092B40134
:1018F0001092B30140E060E070E081E00E949B083C
:10190000892B31F481E090E09093B2018093B10192
:1019100040E060E070E084E00E949B0890E0292EA7
:1019200090E0392E07E615E0812C912C5401839428
:1019300077247A94780C472D60E087EE96E00E9439
:10194000040382E291E00E94C3094AE0C501B401A8
:101950000E94D5098BE291E00E94C309F801C08082
:10196000D180E280F38020E030E04AE754ECC70108
:10197000B6010E94220EF8019481882309F4B4C0B4
:10198000992309F4C4C0A7019601C701B6010E94BA
:101990007A0F882319F08FE291E01AC026013701EF
:1019A000E89477F82FEF3FEF4FE75FE7C301B2010D
:1019B0000E947A0F81110FC02FEF3FEF4FE75FE7D3
:1019C000C301B2010E94220E18162CF483E391E0A9
:1019D0000E94C30976C02FEF3FEF4FE75FE4C701D6
:1019E000B6010E94080F18161CF487E391E0F0CFAF
:1019F0002FEF3FEF4FE75FECC701B6010E94220EC9
:101A000087FDF3CF20E030E0A901C701B6010E94B5
:101A1000220E87FF09C06DE287EE96E00E944A031E
:101A2000F7FAF094F7F8F0942AE037ED43EA5BE335
:101A3000C701B6010E94B60D2B013C010E94270E82
:101A40006B017C010E94560E9B01AC01C301B201E7
:101A50000E94B50D2B013C014AE0C701B6010E946E
:101A6000D5096EE287EE96E00E944A0320E030E05E
:101A700040E251E4C301B2010E940D0F2B013C0171
:101A80000E94270E6B01E12CF12C4AE0C701B60140
:101A90000E94D509C701B6010E94560E9B01AC01F8
:101AA000C301B2010E94B50D20E030E040E251E4F4
:101AB0000E940D0F0E94270E80E090E04AE00E94F5
:101AC000D5098BE391E00E94C309FFEF8F1A9F0AAB
:101AD000AF0ABF0A0B5F1F4F29E082169104A104D1
:101AE000B10409F025CF17C0992389F0472D66E48A
:101AF00087EE96E00E9404038EE391E00E94C30902
:101B00008BE391E00E94C309F8011482DECF21E04B
:101B1000F8012483DACF2114310409F403CF0E94A1
:101B2000000000CF81E08093F00672CEEBEDF6E08E
:101B30001382128288EE93E0A0E0B0E08483958364
:101B4000A683B78386E091E091838083E7EEF6E099
:101B500013821282148616861586178681E0808B82
:101B600088E191E09183808308955058BB27AA278C
:101B70000E94CD0D0C94CE0E0E94C00E38F00E9433
:101B8000C70E20F039F49F3F19F426F40C94BD0ED3
:101B90000EF4E095E7FB0C94B70EE92F0E94DF0EE0
:101BA00058F3BA17620773078407950720F079F492
:101BB000A6F50C94010F0EF4E0950B2EBA2FA02D74
:101BC0000B01B90190010C01CA01A0011124FF27EA
:101BD000591B99F0593F50F4503E68F11A16F040E5
:101BE000A22F232F342F4427585FF3CF46953795E4
:101BF0002795A795F0405395C9F77EF41F16BA0BA9
:101C0000620B730B840BBAF09150A1F0FF0FBB1F56
:101C1000661F771F881FC2F70EC0BA0F621F731F9F
:101C2000841F48F4879577956795B795F7959E3FFC
:101C300008F0B0CF9395880F08F09927EE0F97958D
:101C4000879508950E94930E08F481E008950E94FC
:101C5000E70E88F09F5798F0B92F9927B751B0F049
:101C6000E1F0660F771F881F991F1AF0BA95C9F720
:101C700014C0B13091F00E94010FB1E008950C94AE
:101C8000010F672F782F8827B85F39F0B93FCCF361
:101C9000869577956795B395D9F73EF4909580959D
:101CA000709561957F4F8F4F9F4F0895E89409C0BD
:101CB00097FB3EF490958095709561957F4F8F4F7F
:101CC0009F4F9923A9F0F92F96E9BB279395F69595
:101CD000879577956795B795F111F8CFFAF4BB0F13
:101CE00011F460FF1BC06F5F7F4F8F4F9F4F16C077
:101CF000882311F096E911C0772321F09EE8872F01
:101D0000762F05C0662371F096E8862F70E060E0BC
:101D10002AF09A95660F771F881FDAF7880F969535
:101D2000879597F90895990F0008550FAA0BE0E8D9
:101D3000FEEF16161706E807F907C0F0121613068D
:101D4000E407F50798F0621B730B840B950B39F4CD
:101D50000A2661F0232B242B252B21F408950A2633
:101D600009F4A140A6958FEF811D811D089597F973
:101D70009F6780E870E060E008959FEF80EC089531
:101D800000240A941616170618060906089500245A
:101D90000A9412161306140605060895092E0394D4
:101DA000000C11F4882352F0BB0F40F4BF2B11F448
:101DB00060FF04C06F5F7F4F8F4F9F4F089557FDA7
:101DC0009058440F551F59F05F3F71F04795880FA9
:101DD00097FB991F61F09F3F79F087950895121640
:101DE00013061406551FF2CF4695F1DF08C01616EC
:101DF00017061806991FF1CF86957105610508949D
:101E00000895E894BB2766277727CB0197F90895B3
:101E10000E94930E08F48FEF08950E94200F0C94F7
:101E2000CE0E0E94C00E38F00E94C70E20F09523FF
:101E300011F00C94B70E0C94BD0E11240C94020FEB
:101E40000E94DF0E70F3959FC1F3950F50E0551F70
:101E5000629FF001729FBB27F00DB11D639FAA27FF
:101E6000F00DB11DAA1F649F6627B00DA11D661F4E
:101E7000829F2227B00DA11D621F739FB00DA11D6F
:101E8000621F839FA00D611D221F749F3327A00D29
:101E9000611D231F849F600D211D822F762F6A2FC5
:101EA00011249F5750409AF0F1F088234AF0EE0F2A
:101EB000FF1FBB1F661F771F881F91505040A9F757
:101EC0009E3F510580F00C94B70E0C94020F5F3FBB
:101ED000E4F3983ED4F3869577956795B795F79593
:101EE000E7959F5FC1F7FE2B880F911D969587950B
:101EF00097F908950E94930E880B990B0895A1E21B
:101F00001A2EAA1BBB1BFD010DC0AA1FBB1FEE1F73
:101F1000FF1FA217B307E407F50720F0A21BB30BBE
:101F2000E40BF50B661F771F881F991F1A9469F73A
:101F300060957095809590959B01AC01BD01CF0196
:101F40000895EE0FFF1F0590F491E02D099481E0B4
:101F500090E0F8940C94B50FFB01DC0102C00190F5
:0E1F60000D9241505040D8F70895F894FFCFED
:101F6E00B101000000006502380295020C02300239
:101F7E001C020D02000000004A0399019502940212
:101F8E009A024368616E6E656C2000203A20006EE6
:101F9E00616E00696E66006F7666000D0A00202085
:061FAE004E2F412020002F
:00000001FF
